{
  "_format": "hh-sol-artifact-1",
  "contractName": "WavePortal",
  "sourceName": "contracts/WavePortal.sol",
  "abi": [
    {
      "inputs": [],
      "stateMutability": "payable",
      "type": "constructor"
    },
    {
      "anonymous": false,
      "inputs": [
        {
          "indexed": true,
          "internalType": "address",
          "name": "from",
          "type": "address"
        },
        {
          "indexed": false,
          "internalType": "uint256",
          "name": "timestamp",
          "type": "uint256"
        },
        {
          "indexed": false,
          "internalType": "string",
          "name": "message",
          "type": "string"
        },
        {
          "indexed": false,
          "internalType": "bool",
          "name": "luck",
          "type": "bool"
        }
      ],
      "name": "NewWave",
      "type": "event"
    },
    {
      "stateMutability": "payable",
      "type": "fallback"
    },
    {
      "inputs": [],
      "name": "getAllWaves",
      "outputs": [
        {
          "components": [
            {
              "internalType": "address",
              "name": "waver",
              "type": "address"
            },
            {
              "internalType": "string",
              "name": "message",
              "type": "string"
            },
            {
              "internalType": "uint256",
              "name": "timestamp",
              "type": "uint256"
            },
            {
              "internalType": "bool",
              "name": "lucky",
              "type": "bool"
            }
          ],
          "internalType": "struct WavePortal.Wave[]",
          "name": "",
          "type": "tuple[]"
        }
      ],
      "stateMutability": "view",
      "type": "function"
    },
    {
      "inputs": [],
      "name": "getMyWaves",
      "outputs": [
        {
          "internalType": "uint256",
          "name": "",
          "type": "uint256"
        }
      ],
      "stateMutability": "view",
      "type": "function"
    },
    {
      "inputs": [],
      "name": "getTotalWaves",
      "outputs": [
        {
          "internalType": "uint256",
          "name": "",
          "type": "uint256"
        }
      ],
      "stateMutability": "view",
      "type": "function"
    },
    {
      "inputs": [
        {
          "internalType": "address",
          "name": "",
          "type": "address"
        }
      ],
      "name": "lastWavedAt",
      "outputs": [
        {
          "internalType": "uint256",
          "name": "",
          "type": "uint256"
        }
      ],
      "stateMutability": "view",
      "type": "function"
    },
    {
      "inputs": [],
      "name": "owner",
      "outputs": [
        {
          "internalType": "address",
          "name": "",
          "type": "address"
        }
      ],
      "stateMutability": "view",
      "type": "function"
    },
    {
      "inputs": [
        {
          "internalType": "string",
          "name": "_message",
          "type": "string"
        }
      ],
      "name": "wave",
      "outputs": [],
      "stateMutability": "nonpayable",
      "type": "function"
    },
    {
      "inputs": [
        {
          "internalType": "address",
          "name": "",
          "type": "address"
        }
      ],
      "name": "wavesByAccount",
      "outputs": [
        {
          "internalType": "uint256",
          "name": "",
          "type": "uint256"
        }
      ],
      "stateMutability": "view",
      "type": "function"
    },
    {
      "inputs": [],
      "name": "withdrawAll",
      "outputs": [
        {
          "internalType": "bool",
          "name": "",
          "type": "bool"
        }
      ],
      "stateMutability": "nonpayable",
      "type": "function"
    },
    {
      "stateMutability": "payable",
      "type": "receive"
    }
  ],
  "bytecode": "0x60806040526000600260006101000a81548160ff02191690831515021790555066038d7ea4c680006003556200005960405180606001604052806039815260200162001d5560399139620000a060201b62000d3f1760201c565b33600560006101000a81548173ffffffffffffffffffffffffffffffffffffffff021916908373ffffffffffffffffffffffffffffffffffffffff16021790555062000234565b6200014081604051602401620000b79190620001ad565b6040516020818303038152906040527f41304fac000000000000000000000000000000000000000000000000000000007bffffffffffffffffffffffffffffffffffffffffffffffffffffffff19166020820180517bffffffffffffffffffffffffffffffffffffffffffffffffffffffff83818316178352505050506200014360201b60201c565b50565b60008151905060006a636f6e736f6c652e6c6f679050602083016000808483855afa5050505050565b60006200017982620001d1565b620001858185620001dc565b935062000197818560208601620001ed565b620001a28162000223565b840191505092915050565b60006020820190508181036000830152620001c981846200016c565b905092915050565b600081519050919050565b600082825260208201905092915050565b60005b838110156200020d578082015181840152602081019050620001f0565b838111156200021d576000848401525b50505050565b6000601f19601f8301169050919050565b611b1180620002446000396000f3fe60806040526004361061007f5760003560e01c80639a2cdc081161004e5780639a2cdc0814610144578063a42a46631461016f578063bd43a908146101ac578063f3f2d91b146101d757610086565b8063449d46c01461008857806350ba350c146100b1578063853828b6146100ee5780638da5cb5b1461011957610086565b3661008657005b005b34801561009457600080fd5b506100af60048036038101906100aa91906111c3565b610202565b005b3480156100bd57600080fd5b506100d860048036038101906100d3919061119a565b6108ce565b6040516100e59190611789565b60405180910390f35b3480156100fa57600080fd5b506101036108e6565b60405161011091906115b4565b60405180910390f35b34801561012557600080fd5b5061012e610a4e565b60405161013b9190611577565b60405180910390f35b34801561015057600080fd5b50610159610a74565b6040516101669190611789565b60405180910390f35b34801561017b57600080fd5b506101966004803603810190610191919061119a565b610abf565b6040516101a39190611789565b60405180910390f35b3480156101b857600080fd5b506101c1610ad7565b6040516101ce9190611592565b60405180910390f35b3480156101e357600080fd5b506101ec610c43565b6040516101f99190611789565b60405180910390f35b42601e600860003373ffffffffffffffffffffffffffffffffffffffff1673ffffffffffffffffffffffffffffffffffffffff1681526020019081526020016000205461024f91906118b4565b1061028f576040517f08c379a0000000000000000000000000000000000000000000000000000000008152600401610286906116e9565b60405180910390fd5b33600460006101000a81548173ffffffffffffffffffffffffffffffffffffffff021916908373ffffffffffffffffffffffffffffffffffffffff1602179055504260086000600460009054906101000a900473ffffffffffffffffffffffffffffffffffffffff1673ffffffffffffffffffffffffffffffffffffffff1673ffffffffffffffffffffffffffffffffffffffff16815260200190815260200160002081905550600160076000600460009054906101000a900473ffffffffffffffffffffffffffffffffffffffff1673ffffffffffffffffffffffffffffffffffffffff1673ffffffffffffffffffffffffffffffffffffffff16815260200190815260200160002060008282546103a891906118b4565b9250508190555060016000808282546103c191906118b4565b92505081905550606444426103d691906118b4565b6103e091906119c6565b6001819055506104486040518060400160405280601981526020017f257320776176656420772f206d657373616765202d3e20257300000000000000815250600460009054906101000a900473ffffffffffffffffffffffffffffffffffffffff1683610dd8565b606460015411610472576001600260006101000a81548160ff02191690831515021790555061048e565b6000600260006101000a81548160ff0219169083151502179055505b6104cf6040518060400160405280601681526020017f52616e646f6d20232067656e6572617465643a20256400000000000000000000815250600154610e77565b60066040518060800160405280600460009054906101000a900473ffffffffffffffffffffffffffffffffffffffff1673ffffffffffffffffffffffffffffffffffffffff168152602001838152602001428152602001600260009054906101000a900460ff161515815250908060018154018082558091505060019003906000526020600020906004020160009091909190915060008201518160000160006101000a81548173ffffffffffffffffffffffffffffffffffffffff021916908373ffffffffffffffffffffffffffffffffffffffff16021790555060208201518160010190805190602001906105c792919061107a565b506040820151816002015560608201518160030160006101000a81548160ff0219169083151502179055505050600260009054906101000a900460ff16156107e65761066a6040518060400160405280600781526020017f257320776f6e2100000000000000000000000000000000000000000000000000815250600460009054906101000a900473ffffffffffffffffffffffffffffffffffffffff16610f13565b4760035411156106af576040517f08c379a00000000000000000000000000000000000000000000000000000000081526004016106a690611769565b60405180910390fd5b6000600460009054906101000a900473ffffffffffffffffffffffffffffffffffffffff1673ffffffffffffffffffffffffffffffffffffffff166003546040516106f990611562565b60006040518083038185875af1925050503d8060008114610736576040519150601f19603f3d011682016040523d82523d6000602084013e61073b565b606091505b505090506107a06040518060400160405280601581526020017f6d73672e73656e64657220616464726573732069730000000000000000000000815250600460009054906101000a900473ffffffffffffffffffffffffffffffffffffffff16610f13565b806107e0576040517f08c379a00000000000000000000000000000000000000000000000000000000081526004016107d790611729565b60405180910390fd5b50610848565b6108476040518060400160405280600881526020017f2573206c6f737421000000000000000000000000000000000000000000000000815250600460009054906101000a900473ffffffffffffffffffffffffffffffffffffffff16610f13565b5b600460009054906101000a900473ffffffffffffffffffffffffffffffffffffffff1673ffffffffffffffffffffffffffffffffffffffff167f6d1607feb02544462392cd79bc9fc3cea2a1dd50600d5b503009b84ae27748ca4283600260009054906101000a900460ff166040516108c3939291906117a4565b60405180910390a250565b60076020528060005260406000206000915090505481565b6000600560009054906101000a900473ffffffffffffffffffffffffffffffffffffffff1673ffffffffffffffffffffffffffffffffffffffff163373ffffffffffffffffffffffffffffffffffffffff1614610978576040517f08c379a000000000000000000000000000000000000000000000000000000000815260040161096f90611709565b60405180910390fd5b6000600560009054906101000a900473ffffffffffffffffffffffffffffffffffffffff1673ffffffffffffffffffffffffffffffffffffffff16476040516109c090611562565b60006040518083038185875af1925050503d80600081146109fd576040519150601f19603f3d011682016040523d82523d6000602084013e610a02565b606091505b5050905080610a46576040517f08c379a0000000000000000000000000000000000000000000000000000000008152600401610a3d90611749565b60405180910390fd5b600191505090565b600560009054906101000a900473ffffffffffffffffffffffffffffffffffffffff1681565b6000610ab76040518060400160405280601781526020017f5765206861766520256420746f74616c20776176657321000000000000000000815250600054610e77565b600054905090565b60086020528060005260406000206000915090505481565b60606006805480602002602001604051908101604052809291908181526020016000905b82821015610c3a57838290600052602060002090600402016040518060800160405290816000820160009054906101000a900473ffffffffffffffffffffffffffffffffffffffff1673ffffffffffffffffffffffffffffffffffffffff1673ffffffffffffffffffffffffffffffffffffffff168152602001600182018054610b8490611994565b80601f0160208091040260200160405190810160405280929190818152602001828054610bb090611994565b8015610bfd5780601f10610bd257610100808354040283529160200191610bfd565b820191906000526020600020905b815481529060010190602001808311610be057829003601f168201915b50505050508152602001600282015481526020016003820160009054906101000a900460ff16151515158152505081526020019060010190610afb565b50505050905090565b6000610cfa6040518060400160405280600781526020017f4163636f756e7400000000000000000000000000000000000000000000000000815250336040518060400160405280601281526020017f6e756d626572206f662077617665732069730000000000000000000000000000815250600760003373ffffffffffffffffffffffffffffffffffffffff1673ffffffffffffffffffffffffffffffffffffffff16815260200190815260200160002054610faf565b600760003373ffffffffffffffffffffffffffffffffffffffff1673ffffffffffffffffffffffffffffffffffffffff16815260200190815260200160002054905090565b610dd581604051602401610d5391906115cf565b6040516020818303038152906040527f41304fac000000000000000000000000000000000000000000000000000000007bffffffffffffffffffffffffffffffffffffffffffffffffffffffff19166020820180517bffffffffffffffffffffffffffffffffffffffffffffffffffffffff8381831617835250505050611051565b50565b610e72838383604051602401610df093929190611621565b6040516020818303038152906040527fe0e9ad4f000000000000000000000000000000000000000000000000000000007bffffffffffffffffffffffffffffffffffffffffffffffffffffffff19166020820180517bffffffffffffffffffffffffffffffffffffffffffffffffffffffff8381831617835250505050611051565b505050565b610f0f8282604051602401610e8d9291906116b9565b6040516020818303038152906040527f9710a9d0000000000000000000000000000000000000000000000000000000007bffffffffffffffffffffffffffffffffffffffffffffffffffffffff19166020820180517bffffffffffffffffffffffffffffffffffffffffffffffffffffffff8381831617835250505050611051565b5050565b610fab8282604051602401610f299291906115f1565b6040516020818303038152906040527f319af333000000000000000000000000000000000000000000000000000000007bffffffffffffffffffffffffffffffffffffffffffffffffffffffff19166020820180517bffffffffffffffffffffffffffffffffffffffffffffffffffffffff8381831617835250505050611051565b5050565b61104b84848484604051602401610fc99493929190611666565b6040516020818303038152906040527f8f624be9000000000000000000000000000000000000000000000000000000007bffffffffffffffffffffffffffffffffffffffffffffffffffffffff19166020820180517bffffffffffffffffffffffffffffffffffffffffffffffffffffffff8381831617835250505050611051565b50505050565b60008151905060006a636f6e736f6c652e6c6f679050602083016000808483855afa5050505050565b82805461108690611994565b90600052602060002090601f0160209004810192826110a857600085556110ef565b82601f106110c157805160ff19168380011785556110ef565b828001600101855582156110ef579182015b828111156110ee5782518255916020019190600101906110d3565b5b5090506110fc9190611100565b5090565b5b80821115611119576000816000905550600101611101565b5090565b600061113061112b84611813565b6117e2565b90508281526020810184848401111561114857600080fd5b611153848285611952565b509392505050565b60008135905061116a81611ac4565b92915050565b600082601f83011261118157600080fd5b813561119184826020860161111d565b91505092915050565b6000602082840312156111ac57600080fd5b60006111ba8482850161115b565b91505092915050565b6000602082840312156111d557600080fd5b600082013567ffffffffffffffff8111156111ef57600080fd5b6111fb84828501611170565b91505092915050565b600061121083836114e1565b905092915050565b6112218161190a565b82525050565b6112308161190a565b82525050565b600061124182611853565b61124b8185611876565b93508360208202850161125d85611843565b8060005b85811015611299578484038952815161127a8582611204565b945061128583611869565b925060208a01995050600181019050611261565b50829750879550505050505092915050565b6112b48161191c565b82525050565b6112c38161191c565b82525050565b60006112d48261185e565b6112de8185611892565b93506112ee818560208601611961565b6112f781611ab3565b840191505092915050565b600061130d8261185e565b61131781856118a3565b9350611327818560208601611961565b61133081611ab3565b840191505092915050565b6000611348600f836118a3565b91507f57616974203330207365636f6e647300000000000000000000000000000000006000830152602082019050919050565b6000611388600d836118a3565b91507f4e6f7420746865206f776e6572000000000000000000000000000000000000006000830152602082019050919050565b60006113c86021836118a3565b91507f4661696c656420746f2077697468647261772066726f6d20636f6e747261637460008301527f2e000000000000000000000000000000000000000000000000000000000000006020830152604082019050919050565b600061142e600083611887565b9150600082019050919050565b60006114486010836118a3565b91507f5472616e73666572206661696c65642e000000000000000000000000000000006000830152602082019050919050565b60006114886033836118a3565b91507f547279696e6720746f207769746864726177206d6f7265206d6f6e657920746860008301527f616e2074686520636f6e747261637420686173000000000000000000000000006020830152604082019050919050565b60006080830160008301516114f96000860182611218565b506020830151848203602086015261151182826112c9565b91505060408301516115266040860182611544565b50606083015161153960608601826112ab565b508091505092915050565b61154d81611948565b82525050565b61155c81611948565b82525050565b600061156d82611421565b9150819050919050565b600060208201905061158c6000830184611227565b92915050565b600060208201905081810360008301526115ac8184611236565b905092915050565b60006020820190506115c960008301846112ba565b92915050565b600060208201905081810360008301526115e98184611302565b905092915050565b6000604082019050818103600083015261160b8185611302565b905061161a6020830184611227565b9392505050565b6000606082019050818103600083015261163b8186611302565b905061164a6020830185611227565b818103604083015261165c8184611302565b9050949350505050565b600060808201905081810360008301526116808187611302565b905061168f6020830186611227565b81810360408301526116a18185611302565b90506116b06060830184611553565b95945050505050565b600060408201905081810360008301526116d38185611302565b90506116e26020830184611553565b9392505050565b600060208201905081810360008301526117028161133b565b9050919050565b600060208201905081810360008301526117228161137b565b9050919050565b60006020820190508181036000830152611742816113bb565b9050919050565b600060208201905081810360008301526117628161143b565b9050919050565b600060208201905081810360008301526117828161147b565b9050919050565b600060208201905061179e6000830184611553565b92915050565b60006060820190506117b96000830186611553565b81810360208301526117cb8185611302565b90506117da60408301846112ba565b949350505050565b6000604051905081810181811067ffffffffffffffff8211171561180957611808611a84565b5b8060405250919050565b600067ffffffffffffffff82111561182e5761182d611a84565b5b601f19601f8301169050602081019050919050565b6000819050602082019050919050565b600081519050919050565b600081519050919050565b6000602082019050919050565b600082825260208201905092915050565b600081905092915050565b600082825260208201905092915050565b600082825260208201905092915050565b60006118bf82611948565b91506118ca83611948565b9250827fffffffffffffffffffffffffffffffffffffffffffffffffffffffffffffffff038211156118ff576118fe6119f7565b5b828201905092915050565b600061191582611928565b9050919050565b60008115159050919050565b600073ffffffffffffffffffffffffffffffffffffffff82169050919050565b6000819050919050565b82818337600083830152505050565b60005b8381101561197f578082015181840152602081019050611964565b8381111561198e576000848401525b50505050565b600060028204905060018216806119ac57607f821691505b602082108114156119c0576119bf611a55565b5b50919050565b60006119d182611948565b91506119dc83611948565b9250826119ec576119eb611a26565b5b828206905092915050565b7f4e487b7100000000000000000000000000000000000000000000000000000000600052601160045260246000fd5b7f4e487b7100000000000000000000000000000000000000000000000000000000600052601260045260246000fd5b7f4e487b7100000000000000000000000000000000000000000000000000000000600052602260045260246000fd5b7f4e487b7100000000000000000000000000000000000000000000000000000000600052604160045260246000fd5b6000601f19601f8301169050919050565b611acd8161190a565b8114611ad857600080fd5b5056fea26469706673582212206a00c38d242a8929c6b4a23c2230ad46854c3a8562b80335351cd0d056557bd464736f6c63430008000033546861742773206f6e6520736d616c6c207374657020666f72206d616e2c206f6e65206769616e74206c65617020666f72206d616e6b696e64",
  "linkReferences": {},
  "deployedLinkReferences": {}
}